:100000000C94AB000C945F0F0C94C8000C94170771
:100010000C94C8000C9470070C94C8000C94C80091
:100020000C94C8000C94280D0C94C8000C94C800C3
:100030000C94C8000C94C8000C94C8000C94C80020
:100040000C9427060C94C8000C94C8000C94C800AB
:100050000C94C8000C94C8000C94C8000C94BD0CFF
:100060000C94C8000C94C800FA3E1A7ADE8EF62E64
:100070006078AE1CAA2A3ACEF30AB61E3838B86E9B
:1000800076DA6800FC60DAF266B6BEE0FEE684006E
:1000900003070809060A050C0490000B10120F0D47
:1000A0000E11139B00616C61726D206F66660053C8
:1000B00065742064617900646F6E6500616C6172C3
:1000C0006D20696E697400636C6F636B20696E6983
:1000D0007400737065616B657220696E697400628B
:1000E0006F6F737420696E69740076666420696E40
:1000F0006974007475726E696E67206F6E20616C32
:1001000061726D7377007475726E696E67206F6EC1
:1001100020627574746F6E7300636C6F636B20691B
:100120006E697400210077616B6574696D650057B5
:10013000414B455245534554007A00616C61726DE4
:10014000206F6E2100623200623300623100736EF4
:100150006F6F7A65000011241FBECFEFD4E0DEBFC1
:10016000CDBF11E0A0E0B1E0E8E3F3E202C005900A
:100170000D92A43FB107D9F712E0A4EFB1E001C09E
:100180001D92A632B107E1F70E944B0E0C949A1112
:100190000C9400009C0178941092060210920502C3
:1001A000809105029091060282179307C8F3089583
:1001B000A895089581E08093F7015B9A8CB58F7BB9
:1001C0008CBD85B1877D85B95E9815BC10921402EF
:1001D0001092680085B1897F85B98BB18F7C8BB90E
:1001E00028988AB18F7C8AB920985A985298E1E66B
:1001F000F0E090E8908388E08083449A83B787603A
:1002000083BF889590831082449808958EE284B9C4
:1002100088E48AB98BE087B984E38BB991E095B91A
:1002200085E08093680090936B0080E380936D007D
:100230000895FC0183709070892B39F4CF0164E636
:1002400070E00E942011892B49F420E030E0CF01BA
:1002500060E971E00E942011892B11F421E030E067
:10026000822F08951092800010928100299A2A9876
:1002700078941092060210920502809105029091E6
:1002800006020A97D0F32A9A2998789410920602C7
:100290001092050280910502909106020A97D0F310
:1002A00085B1897F85B982EB8093800088E1809356
:1002B000810008951F93162F9C0140E050E060E4F8
:1002C00072E48FE090E00E946911309387002093E0
:1002D00086008091860090918700969587959093EF
:1002E0008B0080938A0080918A0090918B0090937C
:1002F00089008093880028EC30E01CC08091810048
:1003000082608093810080ED97E0F9013197F1F7E9
:100310000197D9F7809181008D7F8093810085B10D
:10032000897F85B980ED97E0F9013197F1F7019761
:10033000D9F71150112311F785B1897F85B91F9124
:1003400008958B3590F58E3110F08E3111F48EE1D9
:100350002DC0843210F483E229C0893210F488E27F
:1003600025C08E3210F48DE221C0833310F482E375
:100370001DC0883310F487E319C08D3310F48CE36B
:1003800015C0823410F481E411C0873410F486E47F
:100390000DC08C3410F48BE409C0813510F480E575
:1003A00005C0863510F485E501C08AE587BD83E088
:1003B00084BD81E085BD84B5806884BD80916E0078
:1003C000816080936E00789408951F93182F262FD4
:1003D000842F6AE00E941411E92FF0E0EC57FF4FE0
:1003E000E491E0931E02842F0E941411E82FF0E0A4
:1003F000EC57FF4FE491E0931D0210921C02822FF4
:100400000E941411E92FF0E0EC57FF4FE491E093C4
:100410001B02822F0E941411E82FF0E0EC57FF4FCF
:10042000E491E0931A02109219028091F601882358
:1004300061F5812F90E00B966CE070E00E94341122
:100440009C012F5F3F4FC9016AE070E00E943411A8
:10045000FC01EC57FF4FE491E0931802C9016AE0F8
:1004600070E00E943411FB01EC57FF4FE491E093E0
:1004700017021C3020F080911602816003C0809129
:1004800016028E7F809316021AC0812F68E10E94A7
:100490001411292F892F6AE00E941411E92FF0E02E
:1004A000EC57FF4FE491E0931802822F0E94141141
:1004B000E82FF0E0EC57FF4FE491E09317021F9113
:1004C0000895382F262F10921E0210921D021092AE
:1004D0001C02862F6AE00E941411E92FF0E0EC570D
:1004E000FF4FE491E0931B02822F0E941411E82F2A
:1004F000F0E0EC57FF4FE491E0931A0210921902DA
:100500008091F601882309F03BC03C3058F080917F
:100510001602816080931602E7E7F0E0E491E09331
:100520001D020AC0E8E6F0E0E491E0931D0280912C
:1005300016028E7F80931602E4E7F0E0E491E093E8
:100540001E02832F90E00B966CE070E00E94341145
:100550009C012F5F3F4FC9016AE070E00E94341197
:10056000FC01EC57FF4FE491E0931802C9016AE0E7
:1005700070E00E943411FB01EC57FF4FE4911EC064
:10058000832F90E0479668E170E00E9434119C014F
:100590002F5F3F4FC9016AE070E00E943411FC01F7
:1005A000EC57FF4FE491E0931802C9016AE070E054
:1005B0000E943411FB01EC57FF4FE491E0931702C6
:1005C0000895CF93DF9310921602EC01A7E1B2E0F9
:1005D000E881EE23D1F08E2F81568A3128F4F0E0A5
:1005E000E95FFF4FE49108C08E2F80538A3030F4CA
:1005F000F0E0EC5AFF4FE491EC9301C01C9221967D
:10060000119682E0AF31B80719F7DF91CF910895C5
:10061000CF93DF93882309F07AC01092160282E00C
:100620008093190280931C028091F601882361F562
:10063000809124026AE00E941411E82FF0E0EC5748
:10064000FF4FE491E0931702809124020E9414115D
:10065000E92FF0E0EC57FF4FE491E093180280910E
:1006600015020E941411E82FF0E0EC57FF4FE491BF
:10067000E0931A02809115020E941411E92FF0E014
:10068000EC57FF4FE4912BC0809115026AE00E9465
:100690001411E82FF0E0EC57FF4FE491E0931702BC
:1006A000809115020E941411E92FF0E0EC57FF4FE2
:1006B000E491E0931802809124020E941411E82F23
:1006C000F0E0EC57FF4FE491E0931A02809124028E
:1006D0000E941411E92FF0E0EC57FF4FE491E093F2
:1006E0001B02809112026AE00E941411E82FF0E0D0
:1006F000EC57FF4FE491E0931D02809112020E949B
:100700001411E92FF0E0EC57FF4FE491E3C0813082
:1007100009F0E2C080912402C82FD0E0809112023B
:10072000E82FF0E0E053F84F80912402833010F47A
:100730002C9631972091150210921D0210921E02E4
:1007400030E02F5F3F4F2E0F3F1FCE01880F991FC4
:10075000280F391FCF019695879596958795280F75
:10076000391FCF0160E971E00E942011260F371F69
:10077000CF0164E670E00E942011261B370BAE010A
:100780004F5F5F4FCA01880F991F840F951F880F15
:10079000991F6AE070E00E942011C901860F971F1F
:1007A00067E070E00E9420118330B9F0843028F4B3
:1007B000813069F0823070F407C08530A1F0853057
:1007C00078F08630B9F412C080E091E011C087E083
:1007D00091E00EC08EE091E00BC086E191E008C090
:1007E0008FE191E005C088E291E002C08FE291E0E4
:1007F0000E94E10278941092060210920502809104
:10080000050290910602885E9340C8F310921A0286
:1008100010921B0210921C0280912402863079F102
:10082000873070F4833011F1843028F48130C1F0C6
:100830008230D9F518C08430E1F08530B1F51CC0A4
:10084000893031F18A3028F48730E1F0883069F559
:100850001CC08B3019F18B30F0F08C3031F521C099
:1008600088E391E020C08CE391E01DC080E491E03A
:100870001AC086E491E017C08CE491E014C080E5D2
:1008800091E011C085E591E00EC08AE591E00BC0D2
:1008900080E691E008C085E691E005C08BE691E036
:1008A00002C081E791E00E94E102809115026AE0B6
:1008B0000E941411E82FF0E0EC57FF4FE491E09311
:1008C0001D02809115020E941411E92FF0E0EC57EF
:1008D000FF4FE491E0931E02DF91CF91089581E5EF
:1008E0008CBD08959B01AC01F894CA01AA27BB27CF
:1008F0008EBD0DB407FEFDCFBB27A52F942F832FF0
:100900008EBD0DB407FEFDCF2EBD0DB407FEFDCF8D
:10091000409A409878940895AF92BF92CF92DF9218
:10092000EF92FF920F931F93E82FF0E0E057FF4FF5
:10093000E49181E090E002C0880F991FEA95E2F708
:100940007C010027F7FC0095102F20910C023091BC
:100950000D0240910E0250910F02A0E0B0E070E055
:1009600091E0A92EB12CC12CD12CCB010A2E02C0B2
:10097000959587950A94E2F780FF11C0FD01E55631
:10098000FF4FE491A601950104C0220F331F441FBD
:10099000551FEA95D2F7E22AF32A042B152B11965C
:1009A000A830B10511F720930C0230930D0240934B
:1009B0000E0250930F02C801B7010E9472041F91EA
:1009C0000F91FF90EF90DF90CF90BF90AF90089580
:1009D0008EBD0DB407FEFDCF08958AE090E00E9421
:1009E00084118093140285B1866085B982E3809377
:1009F000800080911402882329F080918000806813
:100A00008093800088E1809381008AEF90E090934A
:100A1000870080938600809186009091870096954C
:100A200087959093890080938800809188009091A9
:100A3000890090938B0080938A00089584E090E071
:100A40000E94841168E10E9414119093110285E0C4
:100A500090E00E9484116CE30E94141190931F0295
:100A600086E090E00E9484116CE30E941411909340
:100A7000250288E090E00E9484116CE30E9414112A
:100A80009093130287E090E00E94841168E10E9435
:100A900014119093210281E090E00E94841164E699
:100AA0000E9414119093120282E090E00E9484113F
:100AB0006DE00E9414119093240283E090E00E9464
:100AC00084118F718093150291E09093F901E6EB08
:100AD000F0E080818062808385E08093B100909314
:100AE0007000789408954A9B34C080912002882336
:100AF00009F04CC081E08093200210920402109211
:100B0000030287E791E00E94E10289E080932302DB
:100B1000789410920602109205028091050290913D
:100B20000602885E9340C8F380912102609113020F
:100B30000E94610278941092060210920502809140
:100B4000050290910602885E9340C8F3109223023A
:100B50000895809120028823C9F0109220021092FB
:100B600004021092030280912202882379F085EA20
:100B700090E061E00E94D70F1092220280918100E4
:100B80008D7F8093810085B1866085B908958091BD
:100B9000F7018823D1F180E8809361001092610011
:100BA00086E291E061E00E94D70F1092F70180E4A5
:100BB0009CE90197F1F700B605FC27C00E940601E9
:100BC00089E090E00E9484110E94A10181E58CBD22
:100BD0005B9843988AE090E00E948411809314020D
:100BE0000E94ED04A8950E94730580E793E061E000
:100BF0000E945A0180EE96E061E00E945A0180EC6A
:100C00009DE061E00E945A01A895089588E592E070
:100C100090930402809303028EE491E061E00E94CD
:100C2000D70F80E891E00E94E10289E080932302DF
:100C3000789410920602109205028091050290911C
:100C40000602885E9340C8F31092230208951F9213
:100C50000F920FB60F9211242F933F934F935F93F0
:100C60006F937F938F939F93AF93BF93EF93FF9374
:100C70007894A89580912202882331F18091030213
:100C800090910402892B01F58091FF01909100025F
:100C90000196909300028093FF018357914070F07A
:100CA000109200021092FF01809181008D7F80934D
:100CB000810085B1866085B90E940606329904C01C
:100CC000109200021092FF018091FB019091FC01B3
:100CD00001969093FC018093FB01819708F496C0E4
:100CE0001092FC011092FB01809105029091060286
:100CF0000196909306028093050280912202882338
:100D000031F18091030290910402892B01F58091C9
:100D1000FD019091FE0101969093FE018093FD01EB
:100D20000B97A8F080911002807F39F0809110021B
:100D30008F7080931002419806C080911002806FDE
:100D400080931002419A1092FE011092FD01809151
:100D5000FA01893010F01092FA018091FA01E82F1F
:100D6000F0E0EA5EFD4F60810E948C048091FA0100
:100D70008F5F8093FA0180912202882309F446C094
:100D80008091030290910402892B09F03FC0809169
:100D90000102909102020196909302028093010257
:100DA0008536910598F110920202109201028AEFA5
:100DB00090E09093870080938600809186009091C8
:100DC00087009695879590938B0080938A008091F9
:100DD0008A0090918B009093890080938800809185
:100DE0002202807F49F0809122028F70809322023C
:100DF000809181008D7F08C080912202806F809356
:100E0000220280918100826080938100FF91EF91A6
:100E1000BF91AF919F918F917F916F915F914F9112
:100E20003F912F910F900FBE0F901F9018951F921A
:100E30000F920FB60F9211242F933F934F935F930E
:100E40006F937F938F939F93AF93BF93EF93FF9392
:100E500010926800789418992AC08091070281FD49
:100E60002BC0789410920602109205028091050220
:100E7000909106020A97D0F318991EC00E94320181
:100E800080912202882319F00E94060615C08091E5
:100E9000070282608093070280910802826080933B
:100EA000080285E491E061E00E94D70F05C08091BF
:100EB00007028D7F8093070285E080936800FF9191
:100EC000EF91BF91AF919F918F917F916F915F91C2
:100ED0004F913F912F910F900FBE0F901F9018953B
:100EE0001F920F920FB60F9211242F933F934F939F
:100EF0005F936F937F938F939F93AF93BF93EF9382
:100F0000FF931092680078944D9927C08091070252
:100F100080FD28C0789410920602109205028091FC
:100F20000502909106020A97D0F34D9963C00E9482
:100F30003201809122028823C9F5809107028160E5
:100F400080930702809108028160809308028BE4FD
:100F500091E061E00E94D70F05C0809107028E7F6B
:100F6000809307024C993FC08091070282FD42C0E6
:100F700078941092060210920502809105029091D9
:100F800006020A97D0F34C9935C082E080930A029A
:100F90001BC04C9B19C00E943201809107028B7FBD
:100FA0008093070280912202882319F00E9406068E
:100FB00021C088E491E061E00E94D70F809108028F
:100FC00084608093080216C080910A02882309F782
:100FD00080910702846080930702809109028460F7
:100FE0008093090207C010920902809107028B7F4B
:100FF0008093070285E080936800FF91EF91BF9195
:10100000AF919F918F917F916F915F914F913F91A0
:101010002F910F900FBE0F901F9018950F931F9355
:101020008AE080930B028BE090E00E948411809311
:10103000F60110E00AE001C010E080910802882368
:1010400021F480910902882319F000930B0204C057
:1010500080910B028823C9F08091080280FD38C07E
:101060008091080281FF14C010920802112369F4D4
:101070008091F601882319F489E891E002C082E9A1
:1010800091E00E94E10211E003C01092230220C00F
:101090008091080282FFD1CF10920802113061F6D0
:1010A00090E08091F601882309F491E09093F60195
:1010B000992319F489E891E002C082E991E00E9445
:1010C000E1028BE090E06091F6010E948C11B5CFB7
:1010D0001F910F910895EF92FF920F931F938AE053
:1010E00080930B028AE090E00E948411F82E00E0C9
:1010F0004AE0E42E01C000E080910802882321F438
:1011000080910902882319F0E0920B0204C08091BB
:101110000B02882369F18091080280FD66C08091EE
:10112000080281FF28C010920802002309F5FF2061
:1011300051F08BE991E00E94E10280911B028160F5
:1011400080931B0204C084EA91E00E94E102809136
:101150001C02816080931C0280911D02816080933B
:101160001D0280911E02816080931E0201E003C077
:10117000109223023AC08091080282FFBDCF1092E4
:101180000802013009F0B7CF10E0FF2009F411E0A8
:10119000F12E112351F08BE991E00E94E102809140
:1011A0001B02816080931B0204C084EA91E00E94CC
:1011B000E10280911C02816080931C0280911D02DB
:1011C000816080931D0280911E02816080931E02C7
:1011D0008AE090E0612F0E948C110E94ED0480EA69
:1011E0009FE061E00E945A0187CF1F910F91FF900D
:1011F000EF9008953F924F925F926F927F928F92FD
:101200009F92AF92BF92CF92DF92EF92FF920F9395
:101210001F938AE080930B0289E090E00E94841182
:10122000182F20E06AE0362E0EE15AE5552E45E5EE
:10123000442E30E5732E9BE4692E86E4882EB1E4BB
:10124000AB2EACE39A2EF7E3BF2EE2E3DE2E7DE277
:10125000C72E68E2F62E53E2E52E01C020E0809111
:101260000802882321F480910902882319F0309222
:101270000B0204C080910B02882349F1809108027F
:1012800080FD89C08091080281FF29C01092080268
:101290002223E9F48DEA91E00E94E102812F6AE0C5
:1012A0000E941411E82FF0E0EC57FF4FE491E16049
:1012B000E0931D02812F0E941411E92FF0E0EC57FA
:1012C000FF4FE491E160E0931E0221E008C010921C
:1012D000230289E090E0612F0E948C115CC0809114
:1012E000080282FD04C08091090282FFB8CF1092EB
:1012F0000802213009F0B2CF1B5F1C3508F01EE157
:10130000812F6AE00E941411E82FF0E0EC57FF4FA4
:10131000E491E160E0931D02812F0E941411E92FF6
:10132000F0E0EC57FF4FE491E160E0931E021F31C3
:1013300080F1143210F4E7BC92CF193210F4F7BCEC
:101340008ECF1E3210F4C7BC8ACF133310F4D7BC33
:1013500086CF183310F4B7BC82CF1D3310F497BC7E
:101360007ECF123410F4A7BC7ACF173410F487BCA8
:1013700076CF1C3410F467BC72CF113510F477BCF3
:101380006ECF163510F447BC6ACF1B3511F057BC31
:1013900066CF07BD64CF1F910F91FF90EF90DF9054
:1013A000CF90BF90AF909F908F907F906F905F9005
:1013B0004F903F900895FF920F931F938AE0809380
:1013C0000B0210E00AE0FF24F394809108028823C6
:1013D00021F480910902882319F000930B0205C0C3
:1013E00080910B02882309F472C08091080280FD6D
:1013F00008C18091080281FF6DC01092080211237C
:10140000D1F48091F601882311F411E006C08FEA2F
:1014100090E061E00E94D70F12E080E00E94080394
:101420008091170281608093170280911802816079
:10143000809318024FC0113029F48091F60188235F
:1014400039F020C01230E1F48091F6018130A9F426
:101450008091F601882311F011E001C012E080E0D4
:101460000E94080380911A02816080931A02809181
:101470001B02816080931B022DC0882339F015C0A8
:10148000113099F48091F601813079F480E00E9466
:10149000080380911D02816080931D0280911E02CD
:1014A000816080931E0213E015C083E680932302BF
:1014B00080E00E94080378941092060210920502C0
:1014C00080910502909106028C5D9540C8F31092C0
:1014D000230297C08091080282FD04C08091090216
:1014E00082FF73CF10920802113061F580912402BF
:1014F0008F5F80932402809124028D3010F010932E
:10150000240280E00E9408038091F601882359F4A8
:101510008091170281608093170280911802816088
:10152000809318020AC080911A02816080931A0287
:1015300080911B02816080931B026091240282E0F3
:1015400090E04DC0123061F5809115028F5F80935D
:10155000150280911502803210F0F092150280E0A1
:101560000E9408038091F601813059F4809117029E
:101570008160809317028091180281608093180225
:101580000AC080911A02816080931A0280911B0226
:10159000816080931B026091150283E090E01FC080
:1015A0001330F9F4809112028F5F809312028091C0
:1015B000120264E60E9414119093120280E00E94CD
:1015C000080380911D02816080931D0280911E029C
:1015D000816080931E026091120281E090E00E947F
:1015E0008C118091090282FFF0CE7894109206024D
:1015F000109205028091050290910602CC97D0F3DB
:10160000E4CE1F910F91FF900895DF92EF92FF9229
:101610000F931F93E0901102F0901F02009125029A
:101620008AE080930B0210E07AE0D72E80910802C6
:1016300080FDD7C080910802882321F4809109029F
:10164000882319F0D0920B0205C080910B028823E9
:1016500009F44BC08091080281FF4AC01092080231
:101660001123B9F4E0901102F0901F0200912502BD
:101670008E2D6F2D402F0E94E50180911702816011
:10168000809317028091180281608093180211E004
:101690002FC0113089F48E2D6F2D402F0E94E5014F
:1016A00080911A02816080931A0280911B028160EE
:1016B00080931B0212E01CC0123089F48E2D6F2D16
:1016C000402F0E94E50180911D02816080931D02E0
:1016D00080911E02816080931E0213E009C0E09297
:1016E0001102F0921F02009325021092230279C08A
:1016F0008091080282FD04C08091090282FF96CF8A
:10170000109208021130F9F48E2D90E0019668E1F4
:1017100070E00E943411E82E6F2D402F0E94E501E9
:101720008091170281608093170280911802816076
:1017300080931802E09211026091110284E090E01F
:101740000E948C113DC0123001F58F2D90E0019662
:101750006CE370E00E943411F82E8E2D6F2D402F17
:101760000E94E50180911A02816080931A028091A3
:101770001B02816080931B0260911F0285E090E054
:101780000E948C11F0921F021BC01330C9F4802FED
:1017900090E001966CE370E00E943411082F8E2DCA
:1017A0006F2D402F0E94E50180911D028160809382
:1017B0001D0280911E02816080931E02009325020B
:1017C0008091090282FF32CF789410920602109223
:1017D000050280910502909106028B349105C8F3B1
:1017E00025CF1F910F91FF90EF90DF900895EF921A
:1017F000FF920F931F9310912102009113028AE030
:1018000080930B02FF24FAE0EF2E8091080280FD06
:10181000AFC080910802882321F4809109028823B7
:1018200019F0E0920B0217C080910B02882399F403
:10183000109223021093210200931302609121025F
:1018400087E090E00E948C116091130288E090E0A4
:101850000E948C118DC08091080281FF3CC01092C3
:101860000802FF2089F4812F602F0E94610280917D
:101870001702816080931702809118028160809323
:101880001802FF24F39427C081E0F81689F4812F11
:10189000602F0E94610280911A02816080931A0277
:1018A00080911B02816080931B02E2E0FE2E13C038
:1018B00010932102009313026091210287E090E0CF
:1018C0000E948C116091130288E090E00E948C11BC
:1018D000109223024DC08091080282FD04C08091C5
:1018E000090282FF92CF1092080281E0F816B1F44B
:1018F000812F90E0019668E170E00E943411182F6A
:10190000602F0E946102809117028160809317020C
:101910008091180281608093180219C082E0F81645
:10192000B1F4802F90E001966CE370E00E943411D6
:10193000082F812F602F0E94610280911A0281601E
:1019400080931A0280911B02816080931B02809118
:10195000090282FF5ACF7894109206021092050273
:1019600080910502909106028B349105C8F34DCF0A
:101970001F910F91FF90EF9008951F920F920FB655
:101980000F9211242F933F934F935F936F937F9305
:101990008F939F93AF93BF93EF93FF9300B605FE92
:1019A00028C08091F701882309F041C05B9A85B176
:1019B000877D85B95E988CB58F7B8CBD8091F90150
:1019C000882361F060911F0285E090E00E948C11F5
:1019D0006091250286E090E00E948C1189E391E0FD
:1019E00061E00E94D70F15BC10921402109268009B
:1019F00019C08091F7018823D1F08091F9018823E3
:101A000061F060911F0285E090E00E948C1160916E
:101A1000250286E090E00E948C118FE291E061E067
:101A20000E94D70FE091F401F091F5010995FF9123
:101A3000EF91BF91AF919F918F917F916F915F9146
:101A40004F913F912F910F900FBE0F901F901895BF
:101A50001F920F920FB60F9211242F933F934F9323
:101A60005F936F937F938F939F93AF93BF93EF9306
:101A7000FF9380E8809361001092610080912502BD
:101A80008F5F80932502809125028C3338F010926D
:101A9000250280911F028F5F80931F0280911F0299
:101AA0008C3398F010921F02809111028F5F809307
:101AB00011026091110284E090E00E948C1160910B
:101AC0001F0285E090E00E948C1180911102883104
:101AD00068F010921102809115028F5F80931502B9
:101AE0006091150283E090E00E948C1180911502B4
:101AF000803268F5809115028F3181F48091240243
:101B0000843029F180912402863009F180912402E9
:101B10008930E9F0809124028B30C9F08091150260
:101B20008E3121F480912402823089F08091150257
:101B30008D31D9F4809124028230B9F4809112025F
:101B400090E08053984F0E941901882371F481E03E
:101B500080931502809124028F5F8093240260910C
:101B6000240282E090E00E948C11809124028D304A
:101B700070F0809112028F5F8093120281E0809357
:101B800024026091120281E090E00E948C11809109
:101B9000F701882309F06EC080912302882311F594
:101BA0008091F801882349F08091250280FF05C0CB
:101BB00084EB91E00E94E10208C0809111026091E3
:101BC0001F02409125020E94E50180912002882396
:101BD00021F080911602826003C0809116028D7FF1
:101BE00080931602809120028823E1F090912102D7
:101BF000809111029817B1F49091130280911F0205
:101C0000981781F480912502882361F48BE391E099
:101C100061E00E94D70F81E08093220210920402BB
:101C20001092030280910B02882329F080910B020D
:101C3000815080930B0280910A02882329F08091C1
:101C40000A02815080930A0280910302909104025B
:101C5000009781F00197909304028093030280FF24
:101C600004C080911602826003C0809116028D7FAD
:101C700080931602FF91EF91BF91AF919F918F9149
:101C80007F916F915F914F913F912F910F900FBE78
:101C90000F901F901895BF92CF92DF92EF92FF9214
:101CA0000F931F9315BC569A5E9884B714BE90E0AC
:101CB0000E942E1088E10FB6F89480936000109275
:101CC00060000FBE2FE088E190E00FB6F894A89571
:101CD000809360000FBE20936000A89511E01093E0
:101CE000F8011092F9018AE190E00E94B50F84E2B8
:101CF00091E061E00E94D70F88E480BF80ED97E01B
:101D00000197F1F700B605FE0BC080B7806180BF78
:101D100089E191E061E00E94D70F0E941E0545C055
:101D20000E9406015B9886E091E061E00E94D70F77
:101D300083EF90E061E00E94D70F109369001DBB14
:101D4000109223028AEE90E061E00E94D70F81E5B5
:101D50008CBD8FED90E061E00E94D70F89E090E0AC
:101D60000E9484110E94A10178948BE090E00E946F
:101D700084118093F60182ED90E061E00E94D70F1C
:101D80000E94ED0480EA9FE061E00E945A0187EC26
:101D900090E061E00E94D70F0E941E058CEB90E05E
:101DA00061E00E94D70F0E94730587EB90E061E02D
:101DB0000E94D70F83E6B82E03E0C02E17E0D12E85
:101DC000B6E0EB2EA8E0FA2E04E015E0A89500B6E8
:101DD00005FE03C00E94DA00F9CF8091080280FF5F
:101DE0004EC010920802809123028430C9F08530E1
:101DF00030F4882361F0833009F05EC01CC0863067
:101E000061F1863008F1873009F056C02FC0009389
:101E100023028DEB91E00E94E1020E94F70BD6CFE6
:101E2000C092230287EC91E00E94E1020E94050B20
:101E30001092F801CBCF1093230280ED91E00E9425
:101E4000E1020E94DB09C2CFE092230289ED91E01A
:101E50000E94E1020E94FA08B9CFD092230282EEDA
:101E600091E00E94E1020E946B08B0CFF092230241
:101E70008BEE91E00E94E1020E940E08A7CF8091B4
:101E8000080281FD04C08091080282FF9FCF10925A
:101E90000802B092230281E00E940803A89578947A
:101EA000109206021092050280910502909106029E
:101EB0008C5D9540C8F3A8951092230287CF1F929E
:101EC0000F920FB60F9211242F933F934F935F936E
:101ED0006F937F938F939F93AF93BF93EF93FF93F2
:101EE00089E60E94C20F29B1789478941092060274
:101EF0001092050280910502909106020A97D0F394
:101F000089B1247030E090E0847090702817390710
:101F100011F40E947305FF91EF91BF91AF919F91D2
:101F20008F917F916F915F914F913F912F910F9082
:101F30000FBE0F901F90189506C090E000009F5FA5
:101F40009E31E1F781508823C1F7089548EC50E0B5
:101F500009C020E137E2FA013197F1F72150304012
:101F6000D1F781508823A9F708959093C5008093F5
:101F7000C40088E18093C1008EE08093C200519A32
:101F800050980895982F8091C00085FFFCCF9093C2
:101F9000C60080E090E008958091C00087FFFCCFEC
:101FA0008091C60008958091C00080780895AC01AA
:101FB00020E007C08091C00085FFFCCF3093C600B1
:101FC0002F5FFA01E20FF11D3491332399F7662355
:101FD00071F08091C00085FFFCCF8AE08093C6003D
:101FE0008091C00085FFFCCF8DE08093C6000895EE
:101FF000FC0107C08091C00085FFFCCF3196909313
:10200000C60090819923B1F70895282F982F9295B3
:102010009F709A3030F48091C00085FFFCCF905DB6
:1020200005C08091C00085FFFCCF995A9093C600EF
:10203000822F90E08F7090700A973CF48091C000DE
:1020400085FFFCCF2F70205D06C08091C00085FF0A
:10205000FCCF2F70295A2093C60008951F93182F84
:10206000892F0E940510812F0E9405101F9108954D
:10207000EF92FF920F931F937B018C01C801AA2757
:10208000BB270E942E10C7010E942E101F910F9196
:10209000FF90EF9008950F931F93CF93DF938C01E0
:1020A000E0E1F7E240E0C0E0D0E0C801BF010E94FB
:1020B0002011262F662329F4442319F4E130F10579
:1020C00049F48091C00085FFFCCF205D2093C600BD
:1020D000205341E0CF016AE070E00E942011219678
:1020E000C530D10571F0822F90E09C012E9FC00178
:1020F0002F9F900D3E9F900D1124081B190BFB0183
:10210000D4CFDF91CF911F910F9108954F925F929D
:102110006F927F928F929F92AF92BF92CF92DF92F7
:10212000EF92FF920F931F93CF93DF934B015C01CC
:10213000E12C9AECF92E9AE9092F9BE3192F4424FC
:10214000C0E0D0E0C501B401A80197010E94471189
:10215000D22E222341F4442031F481E0E816F10428
:102160000105110561F48091C00085FFFCCF80E37B
:10217000D80ED092C60080EDD80E44244394C801F6
:10218000B7012AE030E040E050E00E944711C22E43
:10219000732E642E552E2196CA30D105A9F06D2DCF
:1021A00070E080E090E0A80197010E94F510861A87
:1021B000970AA80AB90A2C2D372D462D552DC9018D
:1021C000DA017C018D01BECFDF91CF911F910F917C
:1021D000FF90EF90DF90CF90BF90AF909F908F9047
:1021E0007F906F905F904F900895629FD001739F92
:1021F000F001829FE00DF11D649FE00DF11D929FA3
:10220000F00D839FF00D749FF00D659FF00D9927E1
:10221000729FB00DE11DF91F639FB00DE11DF91F05
:10222000BD01CF0111240895991B79E004C0991FC5
:10223000961708F0961B881F7A95C9F78095089520
:10224000AA1BBB1B51E107C0AA1FBB1FA617B707DC
:1022500010F0A61BB70B881F991F5A95A9F78095F8
:102260009095BC01CD01089597FB092E07260AD051
:1022700077FD04D0E5DF06D000201AF47095619553
:102280007F4F0895F6F7909581959F4F0895A1E2AD
:102290001A2EAA1BBB1BFD010DC0AA1FBB1FEE1FE0
:1022A000FF1FA217B307E407F50720F0A21BB30B2B
:1022B000E40BF50B661F771F881F991F1A9469F7A7
:1022C00060957095809590959B01AC01BD01CF0103
:1022D000089597FB092E05260ED057FD04D0D7DFB1
:1022E0000AD0001C38F450954095309521953F4F09
:1022F0004F4F5F4F0895F6F79095809570956195D3
:102300007F4F8F4F9F4F0895F999FECF92BD81BDAA
:10231000F89A992780B50895262FF999FECF1FBA0C
:1023200092BD81BD20BD0FB6F894FA9AF99A0FBEFE
:0823300001960895F894FFCF17
:1023380073756E646179006D6F6E64617900747590
:102348006573646179007765646E7364617900749C
:102358006875727364617900667269646179007383
:1023680061747572646179006A616E006665620005
:102378006D6172636800617072696C006D617900EB
:102388006A756E65006A756C7900617567737400AB
:1023980073657074006F63746F62006E6F76656D3D
:1023A80000646563656D00616C61726D206F6E001D
:1023B800736E6F6F7A696E67007573612D3132685D
:1023C80072006575722D3234687200766F6C206801
:1023D80069676800766F6C20206C6F77006272699D
:1023E80074652000202020202020202000736574A0
:1023F80020616C61726D007365742074696D65008D
:102408007365742064617465007365742062726911
:10241800740073657420766F6C2000736574207285
:0424280065676E0076
:00000001FF
